:020000040800F2
:1000000000800120A55700083B07000841070008B1
:10001000470700084D0700085307000800000000CC
:10002000000000000000000000000000314D00084A
:100030005907000800000000814F0008E94F000840
:10004000F5570008F5570008F5570008F557000860
:10005000F5570008F5570008F5570008F557000850
:10006000F5570008F5570008F5570008F557000840
:10007000F5570008F5570008F5570008F557000830
:10008000F5570008F5570008F55700080000000074
:10009000000000000000000000000000F55700080C
:1000A000F5570008F5570008F5570008F557000800
:1000B000F5570008F5570008F5570008F5570008F0
:1000C000F5570008F5570008F5570008F5570008E0
:1000D000F5570008F5570008690700080000000000
:1000E000F5570008F5570008F55700080000000014
:1000F000000000000000000000000000F5570008AC
:1001000000000000F5570008F5570008F5570008F3
:1001100000000000000000000000000000000000DF
:10012000F5570008F5570008F5570008F55700087F
:10013000F55700080000000000000000000000006B
:10014000000000000000000000000000F55700085B
:10015000F5570008F5570008F5570008F55700084F
:10016000F5570008F55700080000000000000000E7
:10017000000000000000000000000000000000007F
:1001800000000000F557000800000000000000001B
:04019000F557000817
:1001A00010B5054C237833B9044B13B10448AFF3B1
:1001B00000800123237010BD140000200000000007
:1001C0006C58000808B5034B1BB103490348AFF353
:1001D000008008BD00000000180000206C580008D6
:1001E00053B94AB9002908BF00281CBF4FF0FF319E
:1001F0004FF0FF3000F074B9ADF1080C6DE904CE9A
:1002000000F006F8DDF804E0DDE9022304B07047F1
:100210002DE9F047089D04468E46002B4DD18A42B9
:10022000944669D9B2FA82F252B101FA02F3C2F1EC
:10023000200120FA01F10CFA02FC41EA030E94407D
:100240004FEA1C48210CBEFBF8F61FFA8CF708FB9E
:1002500016E341EA034306FB07F199420AD91CEB76
:10026000030306F1FF3080F01F81994240F21C81A8
:10027000023E63445B1AA4B2B3FBF8F008FB1033F0
:1002800044EA034400FB07F7A7420AD91CEB040425
:1002900000F1FF3380F00A81A74240F207816444F5
:1002A000023840EA0640E41B00261DB1D44000237A
:1002B000C5E900433146BDE8F0878B4209D9002DDE
:1002C00000F0EF800026C5E9000130463146BDE868
:1002D000F087B3FA83F6002E4AD18B4202D38242D2
:1002E00000F2F980841A61EB030301209E46002D81
:1002F000E0D0C5E9004EDDE702B9FFDEB2FA82F2D6
:10030000002A40F09280A1EB0C014FEA1C471FFA33
:100310008CFE0126200CB1FBF7F307FB131140EA1A
:1003200001410EFB03F0884208D91CEB010103F1E7
:10033000FF3802D2884200F2CB804346091AA4B2A9
:10034000B1FBF7F007FB101144EA01440EFB00FE7D
:10035000A64508D91CEB040400F1FF3102D2A645E2
:1003600000F2BB800846A4EB0E0440EA03409CE781
:10037000C6F12007B34022FA07FC4CEA030C20FA2E
:1003800007F401FA06F31C43F9404FEA1C4900FA4E
:1003900006F3B1FBF9F8200C1FFA8CFE09FB1811CB
:1003A00040EA014108FB0EF0884202FA06F20BD93E
:1003B0001CEB010108F1FF3A80F08880884240F28E
:1003C0008580A8F102086144091AA4B2B1FBF9F0D2
:1003D00009FB101144EA014100FB0EFE8E4508D9CD
:1003E0001CEB010100F1FF346CD28E456AD9023852
:1003F000614440EA0840A0FB0294A1EB0E01A14237
:10040000C846A64656D353D05DB1B3EB080261EBA4
:100410000E0101FA07F722FA06F3F1401F43C5E97E
:10042000007100263146BDE8F087C2F12003D840B4
:100430000CFA02FC21FA03F3914001434FEA1C47F6
:100440001FFA8CFEB3FBF7F007FB10360B0C43EAE8
:10045000064300FB0EF69E4204FA02F408D91CEB98
:10046000030300F1FF382FD29E422DD90238634496
:100470009B1B89B2B3FBF7F607FB163341EA034136
:1004800006FB0EF38B4208D91CEB010106F1FF3885
:1004900016D28B4214D9023E6144C91A46EA00467C
:1004A00038E72E46284605E70646E3E61846F8E60E
:1004B0004B45A9D2B9EB020864EB0C0E0138A3E757
:1004C0004646EAE7204694E74046D1E7D0467BE738
:1004D000023B614432E7304609E76444023842E7B0
:1004E000704700BF80B500AF02F02AFA00F008F8AC
:1004F00000F09CF800F070F805F0D0F8FEE700007E
:1005000080B594B000AF07F12003302200211846D7
:1005100005F0A4F907F10C0300221A605A609A60F2
:10052000DA601A610023BB60294B1B6C284A43F038
:1005300080531364264B1B6C03F08053BB60BB6875
:1005400000237B60234B1B6823F44043214A43F480
:10055000004313601F4B1B6803F440437B607B68C0
:1005600002233B620123FB6210233B630223BB6334
:100570000023FB6310233B644FF4A8737B640423C4
:10058000BB640723FB6407F12003184601F0E6F97A
:100590000346002B01D000F0CBF80F23FB600223B1
:1005A0003B6100237B614FF48053BB610023FB61FF
:1005B00007F10C030221184601F048FC0346002B0A
:1005C00001D000F0B5F800BF5037BD4680BD00BF78
:1005D000003802400070004080B500AF114B124A55
:1005E0001A60104B4FF4E1325A600E4B00229A60B1
:1005F0000C4B0022DA600B4B00221A61094B0C22D3
:100600005A61084B00229A61064B0022DA610548C4
:1006100000F02CF90346002B01D000F089F800BF50
:1006200080BD00BF300000200044004080B58AB08B
:1006300000AF07F1140300221A605A609A60DA6072
:100640001A6100233B61374B1B6B364A43F00403AE
:100650001363344B1B6B03F004033B613B690023C2
:10066000FB60304B1B6B2F4A43F0800313632D4B11
:100670001B6B03F08003FB60FB680023BB60294B0E
:100680001B6B284A43F001031363264B1B6B03F0DB
:100690000103BB60BB6800237B60224B1B6B214ABC
:1006A00043F0020313631F4B1B6B03F002037B60D9
:1006B0007B68002220211C4801F084FF01224FF4B6
:1006C00080711A4801F07EFF4FF408537B610023CC
:1006D000BB610023FB6107F114031946134801F0C5
:1006E000D5FD20237B610123BB610023FB61002337
:1006F0003B6207F1140319460B4801F0C7FD4FF4A4
:1007000080737B610123BB610023FB6100233B629B
:1007100007F114031946054801F0B8FD00BF28375A
:10072000BD4680BD00380240000002400008024083
:1007300080B400AF72B600BFFEE780B400AFFEE742
:1007400080B400AFFEE780B400AFFEE780B400AF36
:10075000FEE780B400AFFEE780B400AF00BFBD4647
:100760005DF8047B7047000080B500AF024800F0E0
:100770008DF900BF80BD00BF3000002080B483B081
:1007800000AF00237B60104B5B6C0F4A43F4804347
:1007900053640D4B5B6C03F480437B607B680023E8
:1007A0003B60094B1B6C084A43F080531364064BB3
:1007B0001B6C03F080533B603B6800BF0C37BD46A9
:1007C0005DF8047B704700BF0038024080B58AB0F6
:1007D00000AF786007F1140300221A605A609A6033
:1007E000DA601A617B681B681D4A934233D100238B
:1007F0003B611C4B1B6C1B4A43F400331364194BC5
:100800001B6C03F400333B613B690023FB60154B19
:100810001B6B144A43F001031363124B1B6B03F071
:100820000103FB60FB680C237B610223BB61002397
:10083000FB6100233B6207237B6207F11403194627
:10084000094801F023FD00220621262002F041F88C
:10085000262002F05AF800BF2837BD4680BD00BFF1
:1008600000440040003802400000024080B582B0E1
:1008700000AF78607B68002B01D101233FE07B68EB
:1008800093F83D30DBB2002B06D17B68002283F861
:100890003C207868FFF79AFF7B68242283F83D208C
:1008A0007B681B68DA687B681B6822F40052DA6098
:1008B000786800F0DFFD7B681B681A697B681B683D
:1008C00022F490421A617B681B685A697B681B6836
:1008D00022F02A025A617B681B68DA687B681B6811
:1008E00042F40052DA607B6800221A647B6820229E
:1008F00083F83D207B68202283F83E2000231846A1
:100900000837BD4680BD80B58AB002AFF860B960D7
:100910003B601346FB8000237B61FB6893F83D300E
:10092000DBB2202B7CD1BB68002B02D0FB88002BD4
:1009300001D1012375E0FB6893F83C30012B01D114
:1009400002236EE0FB68012283F83C20FB68002252
:100950001A64FB68212283F83D2002F043F8786195
:10096000FB68FA889A84FB68FA88DA84FB689B68DB
:10097000B3F5805F08D1FB681B69002B04D100230D
:10098000FB61BB68BB6103E0BB68FB610023BB612B
:10099000FB68002283F83C202AE03B6800937B69D7
:1009A00000228021F86800F01FFB0346002B01D0D5
:1009B000032336E0FB69002B0BD1BB691B881A4669
:1009C000FB681B68C2F308025A60BB690233BB6153
:1009D00007E0FB691A78FB681B685A60FB69013302
:1009E000FB61FB68DB8C9BB2013B9AB2FB68DA844B
:1009F000FB68DB8C9BB2002BCFD13B6800937B69FB
:100A000000224021F86800F0EFFA0346002B01D0E5
:100A1000032306E0FB68202283F83D20002300E04A
:100A2000022318462037BD4680BD80B584B000AF94
:100A3000F860B9601346FB80FB6893F83E30DBB288
:100A4000202B1DD1BB68002B02D0FB88002B01D1CD
:100A5000012316E0FB6893F83C30012B01D10223FF
:100A60000FE0FB68012283F83C20FB6800221A6338
:100A7000FB881A46B968F86800F024FB034600E0DA
:100A8000022318461037BD4680BD000080B5BAB0BD
:100A900000AF78607B681B681B68C7F8E4307B6830
:100AA0001B68DB68C7F8E0307B681B685B69C7F8C8
:100AB000DC300023C7F8D8300023C7F8D430D7F88B
:100AC000E43003F00F03C7F8D830D7F8D830002B44
:100AD0000FD1D7F8E43003F02003002B09D0D7F86A
:100AE000E03003F02003002B03D0786800F007FC0F
:100AF00056E2D7F8D830002B00F0DE80D7F8DC3093
:100B000003F00103002B06D1D7F8E03003F4907313
:100B1000002B00F0D180D7F8E43003F00103002B64
:100B20000BD0D7F8E03003F48073002B05D07B683E
:100B30001B6C43F001027B681A64D7F8E43003F0C1
:100B40000403002B0BD0D7F8DC3003F00103002B9B
:100B500005D07B681B6C43F002027B681A64D7F8EF
:100B6000E43003F00203002B0BD0D7F8DC3003F0A5
:100B70000103002B05D07B681B6C43F004027B68EB
:100B80001A64D7F8E43003F00803002B11D0D7F82B
:100B9000E03003F02003002B05D1D7F8DC3003F060
:100BA0000103002B05D07B681B6C43F008027B68B7
:100BB0001A647B681B6C002B00F0ED81D7F8E430E1
:100BC00003F02003002B08D0D7F8E03003F0200317
:100BD000002B02D0786800F092FB7B681B685B6991
:100BE00003F04003402B0CBF01230023DBB2C7F806
:100BF000D4307B681B6C03F00803002B03D1D7F8BB
:100C0000D430002B4FD0786800F09AFA7B681B68CC
:100C10005B6903F04003402B41D17B681B681433B0
:100C2000C7F89C30D7F89C3053E8003FC7F898309D
:100C3000D7F8983023F04003C7F8D0307B681B68A2
:100C40001433D7F8D020C7F8A820C7F8A430D7F8B5
:100C5000A410D7F8A82041E80023C7F8A030D7F89F
:100C6000A030002BD9D17B689B6B002B13D07B6805
:100C70009B6B7D4A1A657B689B6B184601F02BFDC8
:100C80000346002B16D07B689B6B1B6D7A68926BBA
:100C9000104698470EE0786800F090F90AE078680E
:100CA00000F08CF906E0786800F088F97B68002293
:100CB0001A6470E100BF6EE17B681B6B012B40F092
:100CC0004A81D7F8E43003F01003002B00F0438191
:100CD000D7F8E03003F01003002B00F03C81002334
:100CE000BB607B681B681B68BB607B681B685B68BC
:100CF000BB60BB687B681B685B6903F04003402BEB
:100D000040F0B4807B689B6B1B685B68A7F8BE30C3
:100D1000B7F8BE30002B00F040817B689B8DB7F8A0
:100D2000BE209A4280F039817B68B7F8BE20DA8510
:100D30007B689B6BDB69B3F5807F00F088807B6804
:100D40001B680C33C7F88830D7F8883053E8003F69
:100D5000C7F88430D7F8843023F48073C7F8B830EC
:100D60007B681B680C33D7F8B820C7F89420C7F805
:100D70009030D7F89010D7F8942041E80023C7F8B6
:100D80008C30D7F88C30002BD9D17B681B6814339A
:100D90007B677B6F53E8003F3B673B6F23F00103AA
:100DA000C7F8B4307B681B681433D7F8B420C7F891
:100DB0008020FB67F96FD7F8802041E80023BB67EC
:100DC000BB6F002BE1D17B681B6814333B663B6E25
:100DD00053E8003FFB65FB6D23F04003C7F8B030DC
:100DE0007B681B681433D7F8B020FA66BB66B96E0F
:100DF000FA6E41E800237B667B6E002BE3D17B68B3
:100E0000202283F83E207B6800221A637B681B68DF
:100E10000C33FB64FB6C53E8003FBB64BB6C23F0FA
:100E20001003C7F8AC307B681B680C33D7F8AC20D4
:100E3000BA657B65796DBA6D41E800233B653B6D12
:100E4000002BE3D17B689B6B184601F0D4FB7B68D9
:100E50009A8D7B68DB8D9BB2D31A9BB2194678685A
:100E600000F0B6F899E000BF071200087B689A8D81
:100E70007B68DB8D9BB2D31AA7F8CE307B68DB8D05
:100E80009BB2002B00F08B80B7F8CE30002B00F027
:100E900086807B681B680C33BB63BB6B53E8003FE9
:100EA0007B637B6B23F49073C7F8C8307B681B6847
:100EB0000C33D7F8C8207A643B64396C7A6C41E80B
:100EC0000023FB63FB6B002BE3D17B681B681433AF
:100ED0007B627B6A53E8003F3B623B6A23F001037D
:100EE000C7F8C4307B681B681433D7F8C4203A6352
:100EF000FB62F96A3A6B41E80023BB62BB6A002BD4
:100F0000E3D17B68202283F83E207B6800221A63AD
:100F10007B681B680C333B613B6953E8003FFB6017
:100F2000FB6823F01003C7F8C0307B681B680C33E4
:100F3000D7F8C020FA61BB61B969FA6941E80023BA
:100F40007B617B69002BE3D1B7F8CE301946786816
:100F500000F03EF823E0D7F8E43003F08003002BE4
:100F600009D0D7F8E03003F08003002B03D0786875
:100F700000F05DF914E0D7F8E43003F04003002BF3
:100F80000ED0D7F8E03003F04003002B08D078688B
:100F900000F09DF904E000BF02E000BF00E000BFE8
:100FA000E837BD4680BD00BF80B483B000AF786035
:100FB00000BF0C37BD465DF8047B704780B483B03A
:100FC00000AF786000BF0C37BD465DF8047B70470A
:100FD00080B483B000AF78600B467B8000BF0C37D5
:100FE000BD465DF8047B704780B590B000AFF860F7
:100FF000B9603B601346FB7150E0BB6CB3F1FF3F3F
:101000004CD0BB6C002B07D001F0ECFC02463B68D7
:10101000D31ABA6C9A4241D2FB681B680C33BB628C
:10102000BB6A53E8003F7B627B6A23F4D073FB63A7
:10103000FB681B680C33FA6B7A633B63396B7A6B22
:1010400041E80023FB62FB6A002BE5D1FB681B68CB
:1010500014337B617B6953E8003F3B613B6923F0BC
:101060000103BB63FB681B681433BA6B3A62FB6114
:10107000F9693A6A41E80023BB61BB69002BE5D1FD
:10108000FB68202283F83D20FB68202283F83E2065
:10109000FB68002283F83C2003230FE0FB681B68F9
:1010A0001A68BB681340BA689A420CBF0123002338
:1010B000DBB21A46FB799A429FD00023184640378C
:1010C000BD4680BD80B485B000AFF860B9601346FE
:1010D000FB80FB68BA689A62FB68FA889A85FB68AD
:1010E000FA88DA85FB6800221A64FB68222283F8FA
:1010F0003E20FB68002283F83C20FB681B69002B24
:1011000007D0FB681B68DA68FB681B6842F48072D2
:10111000DA60FB681B685A69FB681B6842F00102D1
:101120005A61FB681B68DA68FB681B6842F02002A2
:10113000DA60002318461437BD465DF8047B70471B
:1011400080B495B000AF78607B681B680C337B631C
:101150007B6B53E8003F3B633B6B23F49073FB6472
:101160007B681B680C33FA6C3A64FB63F96B3A6C6E
:1011700041E80023BB63BB6B002BE5D17B681B6898
:1011800014333B623B6A53E8003FFB61FB6923F089
:101190000103BB647B681B681433BA6CFA62BB62E0
:1011A000B96AFA6A41E800237B627B6A002BE5D1C9
:1011B0007B681B6B012B19D17B681B680C33FB60B0
:1011C000FB6853E8003FBB60BB6823F010037B64FF
:1011D0007B681B680C337A6CBA617B617969BA6988
:1011E00041E800233B613B69002BE5D17B6820226D
:1011F00083F83E207B6800221A6300BF5437BD4647
:101200005DF8047B704780B584B000AF78607B6880
:101210009B6BFB60FB680022DA85FB680022DA84A6
:10122000F868FFF7CBFE00BF1037BD4680BD80B425
:1012300085B000AF78607B6893F83D30DBB2212B3E
:101240003ED17B689B68B3F5805F14D17B681B69D6
:10125000002B10D17B681B6AFB60FB681B881A4659
:101260007B681B68C2F308025A607B681B6A9A1C81
:101270007B681A6208E07B681B6A591C7A681162F5
:101280001A787B681B685A607B68DB8C9BB2013BD9
:101290009BB27A681946D184002B0FD17B681B68FA
:1012A000DA687B681B6822F08002DA607B681B6862
:1012B000DA687B681B6842F04002DA60002300E0D5
:1012C000022318461437BD465DF8047B704780B58D
:1012D00082B000AF78607B681B68DA687B681B6847
:1012E00022F04002DA607B68202283F83D20786893
:1012F000FFF75AFE002318460837BD4680BD80B56B
:101300008CB000AF78607B6893F83E30DBB2222B64
:1013100040F0AB807B689B68B3F5805F17D17B683A
:101320001B69002B13D10023FB627B689B6ABB62A5
:101330007B681B685B689BB2C3F308039AB2BB6A05
:101340001A807B689B6A9A1C7B689A6226E07B689D
:101350009B6AFB620023BB627B689B68B3F5805F7E
:1013600007D07B689B68002B0AD17B681B69002B28
:1013700006D17B681B685B68DAB2FB6A1A7008E00A
:101380007B681B685B68DBB203F07F03DAB2FB6A41
:101390001A707B689B6A5A1C7B689A627B68DB8D3B
:1013A0009BB2013B9BB27A681946D185002B5AD17A
:1013B0007B681B68DA687B681B6822F02002DA60B1
:1013C0007B681B68DA687B681B6822F48072DA60CD
:1013D0007B681B685A697B681B6822F001025A61AE
:1013E0007B68202283F83E207B681B6B012B35D164
:1013F0007B6800221A637B681B680C337B617B6906
:1014000053E8003F3B613B6923F010037B627B683C
:101410001B680C337A6A3A62FB61F9693A6A41E8FF
:101420000023BB61BB69002BE5D17B681B681B688F
:1014300003F01003102B0AD10023FB607B681B68AC
:101440001B68FB607B681B685B68FB60FB687B68F4
:101450009B8D19467868FFF7BBFD02E0786804F0C1
:101460006BF9002302E0002300E002231846303726
:10147000BD4680BD2DE9B04FC0B000AFC7F8F40045
:10148000D7F8F4301B681B6923F44050D7F8F430C8
:10149000D968D7F8F4301A6840EA01031361D7F825
:1014A000F4309A68D7F8F4301B691A43D7F8F4304F
:1014B0005B691A43D7F8F430DB691343C7F8F83097
:1014C000D7F8F4301B68DB6823F4164121F00C01D7
:1014D000D7F8F4301A68D7F8F8300B43D360D7F850
:1014E000F4301B685B6923F44070D7F8F4309969D5
:1014F000D7F8F4301A6840EA01035361D7F8F430A2
:101500001A688F4B9A4205D0D7F8F4301A688D4B81
:101510009A4204D100F0A6FEC7F8FC0003E000F0F8
:101520008DFEC7F8FC00D7F8F430DB69B3F5004F47
:1015300040F00C81D7F8FC300022C7F8E830C7F83B
:10154000EC20D7E93A4522462B469118B9655B4114
:10155000FB65D7E91623214612EB0108294643EB28
:1015600001094FF000024FF000034FEAC90343EABC
:1015700058734FEAC80290469946234618EB030376
:10158000C7F8E0302B4649EB0303C7F8E430D7F83F
:10159000F4305B680022C7F8D830C7F8DC20D7E900
:1015A00036120B46DB183B65134642EB03037B65A3
:1015B000D7E91423D7E93801FEF712FE02460B469D
:1015C000614BA3FB02235B091C01D7F8FC3000220E
:1015D000C7F8D030C7F8D420D7E9348942464B4603
:1015E0009118B9645B41FB64D7E91223414612EBC1
:1015F000010A494643EB010B4FF000024FF0000394
:101600004FEACB0343EA5A734FEACA0292469B461B
:1016100043461AEB0303C7F8C8304B464BEB0303B2
:10162000C7F8CC30D7F8F4305B680022C7F8C03078
:10163000C7F8C420D7E930120B46DB183B641346C9
:1016400042EB03037B64D7E91023D7E93201FEF7AD
:10165000C7FD02460B4611463B4BA3FB01235B092A
:10166000642202FB03F3CB1ADB0003F13202364B98
:10167000A3FB02235B095B0003F4F8731C44D7F857
:10168000FC300022C7F8B830C7F8BC20D7E92E8953
:1016900042464B469118B9635B41FB63D7E90E2381
:1016A00041465118396349464B417B634FF0000274
:1016B0004FF00003D7E90CAB5946CB00514643EA43
:1016C00051735146CA0010461946034642469B18BC
:1016D000C7F8B0304B460A4642EB0303C7F8B430B4
:1016E000D7F8F4305B680022C7F8A830C7F8AC2000
:1016F000D7E92A120B46DB18BB62134642EB030301
:10170000FB62D7E90A23D7E92C01FEF769FD0246FF
:101710000B460D4BA3FB02135B09642101FB03F392
:10172000D31ADB003233084AA2FB03235B0903F020
:101730000702D7F8F4301B6822449A6005E100BF25
:1017400000100140001401401F85EB51D7F8FC3018
:101750000022C7F8A030C7F8A420D7E9288942465C
:101760004B46911839625B417B62D7E908234146B9
:101770005418494643EB01054FF000024FF00003B7
:10178000EB0043EA5473E20014461D464346E31857
:10179000C7F898304B4645EB0303C7F89C30D7F8A1
:1017A000F4305B680022C7F89030C7F894204FF0FF
:1017B00000024FF00003D7E9244529468B0021465B
:1017C00043EA917321468A00D7E92601FEF708FD16
:1017D00002460B46604BA3FB02235B091C01D7F8B2
:1017E000FC300022C7F88830C7F88C20D7E922895E
:1017F00042464B469118B9615B41FB61D7E906232C
:1018000041465118396149464B417B614FF0000216
:101810004FF00003D7E904AB5946CB00514643EAE9
:1018200051735146CA0010461946034642469B185A
:10183000C7F880304B460A4642EB0303C7F88430B2
:10184000D7F8F4305B680022BB67FA674FF00002FC
:101850004FF00003D7E91E8949468B00414643EA11
:10186000917341468A00D7E92001FEF7B9FC024690
:101870000B46394BA3FB02135B09642101FB03F305
:10188000D31A1B013233344AA2FB03235B0903F052
:10189000F0031C44D7F8FC3000223B677A67D7E995
:1018A0001C8942464B469118B9605B41FB60D7E901
:1018B000022341465118396049464B417B604FF045
:1018C00000024FF00003D7E900AB5946CB00514668
:1018D00043EA51735146CA00104619460346424630
:1018E0009B18BB664B460A4642EB0303FB66D7F8E0
:1018F000F4305B6800223B667A664FF000024FF0DE
:101900000003D7E9188949468B00414643EA9173A1
:1019100041468A00D7E91A01FEF762FC02460B46EF
:101920000D4BA3FB02135B09642101FB03F3D31AE4
:101930001B013233084AA2FB03235B0903F00F02A9
:10194000D7F8F4301B6822449A6000BF07F580770F
:10195000BD46BDE8B08F00BF1F85EB5180B586B096
:1019600000AF78607B68002B01D1012367E27B68C0
:101970001B6803F00103002B75D0884B9B6803F0B4
:101980000C03042B0CD0854B9B6803F00C03082B35
:1019900012D1824B5B6803F48003B3F5800F0BD147
:1019A0007E4B1B6803F40033002B5BD07B685B68C5
:1019B000002B57D1012342E27B685B68B3F5803F7F
:1019C00006D1764B1B68754A43F4803313601DE0E3
:1019D0007B685B68B3F5A02F0CD1704B1B686F4A16
:1019E00043F4802313606D4B1B686C4A43F48033CF
:1019F00013600BE0694B1B68684A23F48033136063
:101A0000664B1B68654A23F4802313607B685B6820
:101A1000002B13D000F0E6FF386108E000F0E2FF91
:101A200002463B69D31A642B01D9032307E25B4BBF
:101A30001B6803F40033002BF0D014E000F0D2FF59
:101A4000386108E000F0CEFF02463B69D31A642BF0
:101A500001D90323F3E1514B1B6803F40033002B3E
:101A6000F0D100E000BF7B681B6803F00203002B8D
:101A700063D04A4B9B6803F00C03002B0BD0474B01
:101A80009B6803F00C03082B1CD1444B5B6803F4E8
:101A90008003002B16D1414B1B6803F00203002B7F
:101AA00005D07B68DB68012B01D00123C7E13B4BEC
:101AB0001B6823F0F8027B681B69DB00374913437E
:101AC0000B603AE07B68DB68002B20D0344B0122AE
:101AD0001A6000F087FF386108E000F083FF0246DB
:101AE0003B69D31A022B01D90323A8E12B4B1B68B6
:101AF00003F00203002BF0D0284B1B6823F0F80200
:101B00007B681B69DB00254913430B6015E0244B00
:101B100000221A6000F066FF386108E000F062FF02
:101B200002463B69D31A022B01D9032387E11B4BE1
:101B30001B6803F00203002BF0D17B681B6803F0E5
:101B40000803002B36D07B685B69002B16D0154B41
:101B500001221A6000F046FF386108E000F042FF01
:101B600002463B69D31A022B01D9032367E10B4BD1
:101B70005B6F03F00203002BF0D01BE0094B002247
:101B80001A6000F02FFF38610EE000F02BFF0246D4
:101B90003B69D31A022B07D9032350E100380240D6
:101BA00000004742800E4742884B5B6F03F0020300
:101BB000002BEAD17B681B6803F00403002B00F0C4
:101BC00097800023FB75814B1B6C03F08053002B27
:101BD0000FD10023BB607D4B1B6C7C4A43F08053CC
:101BE00013647A4B1B6C03F08053BB60BB6801230A
:101BF000FB75774B1B6803F48073002B18D1744B73
:101C00001B68734A43F48073136000F0EBFE386185
:101C100008E000F0E7FE02463B69D31A022B01D927
:101C200003230CE16A4B1B6803F48073002BF0D094
:101C30007B689B68012B06D1644B1B6F634A43F0A2
:101C4000010313671CE07B689B68052B0CD15F4B7D
:101C50001B6F5E4A43F0040313675C4B1B6F5B4AC8
:101C600043F0010313670BE0584B1B6F574A23F0F7
:101C700001031367554B1B6F544A23F0040313678A
:101C80007B689B68002B15D000F0ACFE38610AE041
:101C900000F0A8FE02463B69D31A41F28832934213
:101CA00001D90323CBE0494B1B6F03F00203002B48
:101CB000EED014E000F096FE38610AE000F092FEEB
:101CC00002463B69D31A41F28832934201D9032379
:101CD000B5E03E4B1B6F03F00203002BEED1FB7D02
:101CE000012B05D1394B1B6C384A23F08053136408
:101CF0007B689B69002B00F0A180344B9B6803F04C
:101D00000C03082B5CD07B689B69022B41D1314BC3
:101D100000221A6000F066FE386108E000F062FE02
:101D200002463B69D31A022B01D9032387E0274BD4
:101D30001B6803F00073002BF0D17B68DA697B68C5
:101D40001B6A1A437B685B6A9B011A437B689B6A28
:101D50005B08013B1B041A437B68DB6A1B061B49BB
:101D600013434B601B4B01221A6000F03BFE3861AD
:101D700008E000F037FE02463B69D31A022B01D976
:101D800003235CE0114B1B6803F00073002BF0D0C1
:101D900054E0104B00221A6000F024FE386108E085
:101DA00000F020FE02463B69D31A022B01D903231F
:101DB00045E0064B1B6803F00073002BF0D13DE0BB
:101DC0007B689B69012B07D1012338E00038024072
:101DD00000700040600047421B4B5B68FB607B6803
:101DE0009B69012B28D0FB6803F480027B68DB69C8
:101DF0009A4221D1FB6803F03F027B681B6A9A423A
:101E00001AD1FA6847F6C07313407A68526A920191
:101E1000934211D1FB6803F440327B689B6A5B08F4
:101E2000013B1B049A4207D1FB6803F070627B6898
:101E3000DB6A1B069A4201D0012300E0002318460A
:101E40001837BD4680BD00BF0038024080B584B061
:101E500000AF786039607B68002B01D10123CCE0B2
:101E6000684B1B6803F007033A689A420CD9654B2C
:101E70003A68D2B21A70634B1B6803F007033A68E2
:101E80009A4201D00123B8E07B681B6803F002038B
:101E9000002B20D07B681B6803F00403002B05D0C7
:101EA000594B9B68584A43F4E05393607B681B6826
:101EB00003F00803002B05D0534B9B68524A43F4B0
:101EC00060439360504B9B6823F0F0027B689B68F3
:101ED0004D4913438B607B681B6803F00103002BA3
:101EE00044D07B685B68012B07D1474B1B6803F428
:101EF0000033002B19D101237FE07B685B68022B44
:101F000003D07B685B68032B07D13F4B1B6803F052
:101F10000073002B09D101236FE03B4B1B6803F0DA
:101F20000203002B01D1012367E0374B9B6823F0AC
:101F300003027B685B68344913438B6000F052FDF9
:101F4000F8600AE000F04EFD0246FB68D31A41F249
:101F50008832934201D903234FE02B4B9B6803F057
:101F60000C027B685B689B009A42EBD1254B1B6897
:101F700003F007033A689A420CD2224B3A68D2B275
:101F80001A70204B1B6803F007033A689A4201D08D
:101F9000012332E07B681B6803F00403002B08D0A8
:101FA000194B9B6823F4E0527B68DB6816491343A6
:101FB0008B607B681B6803F00803002B09D0124B71
:101FC0009B6823F460427B681B69DB000E49134366
:101FD0008B6000F021F802460B4B9B681B0903F055
:101FE0000F030A49CB5C22FA03F3094A1360094B39
:101FF0001B68184600F0C6FC002318461037BD4683
:1020000080BD00BF003C024000380240D8580008A4
:1020100008000020000000202DE9B04F94B000AF70
:1020200000237B640023FB6400233B640023BB6428
:10203000794B9B6803F00C03082B0DD0082B00F2A2
:10204000E180002B02D0042B03D0DBE0734BBB6498
:10205000DBE0734BBB64D8E06F4B5B6803F03F037E
:102060007B646D4B5B6803F48003002B63D06A4B89
:102070005B689B090022BB63FA63BB6BC3F3080375
:102080003B6300237B63D7E90C4522462B464FF088
:1020900000004FF00001590141EAD26150010246AF
:1020A0000B462146511A3961294663EB01037B61D6
:1020B0004FF000024FF00003D7E904AB59468B0103
:1020C000514643EA916351468A015146B2EB0108F9
:1020D000594663EB01094FF000024FF000034FEA4D
:1020E000C90343EA58734FEAC8029046994623460B
:1020F00018EB0303BB602B4649EB0303FB604FF077
:1021000000024FF00003D7E9024529464B02214661
:1021100043EAD15321464A02104619467B6C0022FD
:10212000BB62FA62D7E90A23FEF75AF802460B4669
:102130001346FB6458E0384B5B689B090022184645
:102140001146C0F308033B6200237B62D7E908898C
:1021500042464B464FF000004FF00001590141EA62
:10216000D261500102460B464146B2EB010A494694
:1021700063EB010B4FF000024FF000034FEA8B13AB
:1021800043EA9A634FEA8A12B2EB0A0463EB0B0547
:102190004FF000024FF00003EB0043EA5473E200FB
:1021A00014461D464346E3183B604B4645EB03038C
:1021B0007B604FF000024FF00003D7E9004529464D
:1021C0008B02214643EA915321468A021046194662
:1021D0007B6C0022BB61FA61D7E90623FEF700F8A9
:1021E00002460B461346FB640B4B5B681B0C03F06B
:1021F000030301335B003B64FA6C3B6CB2FBF3F30B
:10220000BB6402E0054BBB6400BFBB6C1846503793
:10221000BD46BDE8B08F00BF003802400024F40086
:1022200000127A0080B400AF034B1B681846BD460D
:102230005DF8047B704700BF0800002080B500AF48
:10224000FFF7F0FF0246054B9B689B0A03F007036C
:102250000349CB5C22FA03F3184680BD00380240E4
:10226000E858000880B500AFFFF7DCFF0246054BD9
:102270009B685B0B03F007030349CB5C22FA03F373
:10228000184680BD00380240E858000880B489B084
:1022900000AF7860396000237B6100233B6100233D
:1022A000BB610023FB6159E10122FB6902FA03F3E0
:1022B0007B613B681B687A6913403B613A697B69C3
:1022C0009A4240F048813B685B6803F00303012BAE
:1022D00005D03B685B6803F00303022B30D17B68B9
:1022E0009B68BB61FB695B00032202FA03F3DB43DB
:1022F000BA691340BB613B68DA68FB695B0002FAAC
:1023000003F3BA691343BB617B68BA699A607B685F
:102310005B68BB610122FB6902FA03F3DB43BA6924
:102320001340BB613B685B681B0903F00102FB695A
:1023300002FA03F3BA691343BB617B68BA695A6056
:102340003B685B6803F00303032B17D07B68DB68F3
:10235000BB61FB695B00032202FA03F3DB43BA694A
:102360001340BB613B689A68FB695B0002FA03F3A8
:10237000BA691343BB617B68BA69DA603B685B6822
:1023800003F00303022B23D1FB69DA087B680832D0
:1023900053F82230BB61FB6903F007039B000F2257
:1023A00002FA03F3DB43BA691340BB613B681A6965
:1023B000FB6903F007039B0002FA03F3BA691343B6
:1023C000BB61FB69DA087B680832B96943F82210FF
:1023D0007B681B68BB61FB695B00032202FA03F3A5
:1023E000DB43BA691340BB613B685B6803F00302DF
:1023F000FB695B0002FA03F3BA691343BB617B68B4
:10240000BA691A603B685B6803F44033002B00F044
:10241000A2800023FB60574B5B6C564A43F4804319
:102420005364544B5B6C03F48043FB60FB68524A7B
:10243000FB699B08023352F82330BB61FB6903F050
:1024400003039B000F2202FA03F3DB43BA69134034
:10245000BB617B68494A934219D07B68484A9342E2
:1024600013D07B68474A93420DD07B68464A93421B
:1024700007D07B68454A934201D1042308E0072333
:1024800006E0032304E0022302E0012300E000232E
:10249000FA6902F0030292009340BA691343BB61E8
:1024A0003549FB699B080233BA6941F82320384B50
:1024B0009B68BB613B69DB43BA691340BB613B6806
:1024C0005B6803F48013002B03D0BA693B691343A4
:1024D000BB612F4ABB6993602D4BDB68BB613B69D5
:1024E000DB43BA691340BB613B685B6803F40013CC
:1024F000002B03D0BA693B691343BB61244ABB6913
:10250000D360234B5B68BB613B69DB43BA69134013
:10251000BB613B685B6803F40033002B03D0BA69EE
:102520003B691343BB611A4ABB695360184B1B6874
:10253000BB613B69DB43BA691340BB613B685B68C5
:1025400003F48033002B03D0BA693B691343BB61AA
:102550000F4ABB691360FB690133FB61FB690F2BF9
:102560007FF6A2AE00BF00BF2437BD465DF8047BF6
:10257000704700BF003802400038014000000240B0
:102580000004024000080240000C0240001002401B
:10259000003C014080B485B000AF78600B467B8082
:1025A0007B681A697B881340002B02D00123FB73E0
:1025B00001E00023FB73FB7B18461437BD465DF832
:1025C000047B704780B483B000AF78600B467B809B
:1025D00013467B707B78002B03D07A887B689A61E6
:1025E00003E07B881A047B689A6100BF0C37BD4604
:1025F0005DF8047B704780B584B000AF78607B687D
:102600009B6DFB6000F0EEF9B8607B6893F83530A5
:10261000DBB2022B08D07B6880225A657B680022DF
:1026200083F83420012352E07B681B681A687B68BA
:102630001B6822F016021A607B681B685A697B6867
:102640001B6822F080025A617B681B6C002B03D14F
:102650007B689B6C002B07D07B681B681A687B68C3
:102660001B6822F008021A607B681B681A687B6886
:102670001B6822F001021A6013E000F0B3F9024671
:10268000BB68D31A052B0CD97B6820225A657B685E
:10269000032283F835207B68002283F8342003234B
:1026A00015E07B681B681B6803F00103002BE4D175
:1026B0007B68DB6D3F229A40FB689A607B68012251
:1026C00083F835207B68002283F8342000231846E5
:1026D0001037BD4680BD80B483B000AF78607B68A2
:1026E00093F83530DBB2022B04D07B6880225A6528
:1026F00001230CE07B68052283F835207B681B688A
:102700001A687B681B6822F001021A6000231846D1
:102710000C37BD465DF8047B7047000080B485B07F
:1027200000AF78607B6803F00703FB600C4BDB684D
:10273000BB60BA684FF6FF031340BB60FB681A0228
:10274000BB68134343F0BF6343F40033BB60044AE8
:10275000BB68D36000BF1437BD465DF8047B70478B
:1027600000ED00E080B400AF044BDB681B0A03F00F
:1027700007031846BD465DF8047B704700ED00E096
:1027800080B483B000AF0346FB7197F90730002B8C
:102790000BDBFB7903F01F02074997F907305B0950
:1027A000012000FA02F241F8232000BF0C37BD4699
:1027B0005DF8047B704700BF00E100E080B483B0A7
:1027C00000AF03463960FB7197F90730002B0ADB35
:1027D0003B68DAB20C4997F907301201D2B20B44C8
:1027E00083F800230AE03B68DAB20849FB7903F07A
:1027F0000F03043B1201D2B20B441A7600BF0C3710
:10280000BD465DF8047B704700E100E000ED00E0AC
:1028100080B489B000AFF860B9607A60FB6803F0FB
:102820000703FB61FB69C3F10703042B28BF0423E3
:10283000BB61FB690433062B02D9FB69033B00E053
:1028400000237B614FF0FF32BB6902FA03F3DA43E6
:10285000BB681A407B699A404FF0FF317B6901FAEF
:1028600003F3D9437B680B40134318462437BD4616
:102870005DF8047B7047000080B582B000AF7860DF
:102880007B68013BB3F1807F01D301230FE00A4A4B
:102890007B68013B53600F214FF0FF30FFF78EFF45
:1028A000054B00229A60044B07221A600023184649
:1028B0000837BD4680BD00BF10E000E080B582B0A3
:1028C00000AF78607868FFF729FF00BF0837BD4682
:1028D00080BD80B586B000AF0346B9607A60FB73F7
:1028E00000237B61FFF73EFF78617A68B9687869F9
:1028F000FFF78EFF024697F90F3011461846FFF793
:102900005DFF00BF1837BD4680BD80B582B000AF07
:102910000346FB7197F907301846FFF731FF00BFF8
:102920000837BD4680BD80B582B000AF786078685A
:10293000FFF7A2FF034618460837BD4680BD0000DA
:1029400080B500AF0E4B1B680D4A43F40073136053
:102950000B4B1B680A4A43F480631360084B1B68E7
:10296000074A43F4807313600320FFF7A7FF00209A
:1029700000F008F8FDF702FF0023184680BD00BFF5
:10298000003C024080B582B000AF7860124B1A68FC
:10299000124B1B7819464FF47A73B3FBF1F3B2FB79
:1029A000F3F31846FFF7BFFF0346002B01D00123C6
:1029B0000EE07B680F2B0AD8002279684FF0FF30B9
:1029C000FFF787FF064A7B681360002300E00123BE
:1029D00018460837BD4680BD0800002004000020CE
:1029E0000000002080B400AF034B1B681846BD46B2
:1029F0005DF8047B704700BF7400002080B400AF16
:102A0000064BD3F88830054A43F47003C2F8883087
:102A100000BFBD465DF8047B704700BF00ED00E0DD
:102A200080B58CB004AFF860B9603B601346FB80A2
:102A3000FB889B00184602F069FB78617B69002BDC
:102A400013D0502002F062FBF861FB69002B08D024
:102A500050220021F86902F001FFFB697A691A63CC
:102A600005E0786902F00CFC01E00023FB61FB69E2
:102A7000002B13D0FA8800230393FB690293FB6AAF
:102A80000193BB6A00933B68B968F86800F00EF8E0
:102A9000F86900F097F80123BB6102E04FF0FF33C3
:102AA000BB61BB6918462037BD4680BD80B588B084
:102AB00000AFF860B9607A603B603B6B186B7B6875
:102AC0009B001A46A52102F0C9FE3B6B1A6B7B687E
:102AD00003F18043013B9B001344BB61BB6923F0BE
:102AE0000703BB61BB6903F00703002B0AD04FF05B
:102AF000500383F31188BFF36F8FBFF34F8F7B6158
:102B000000BFFEE7BB68002B1ED00023FB6112E074
:102B1000BA68FB69134419783A6BFB691344343380
:102B20000A461A70BA68FB6913441B78002B06D05A
:102B3000FB690133FB61FB69092BE9D900E000BFA8
:102B40003B6B002283F83D20BB6A042B0AD94FF06F
:102B5000500383F31188BFF36F8FBFF34F8F3B6137
:102B600000BFFEE7BB6A042B01D90423BB623B6BA9
:102B7000BA6ADA623B6B0433184601F0B9FC3B6B6E
:102B80001833184601F0B4FC3B6B3A6B1A61BB6A10
:102B9000C3F105023B6B9A613B6B3A6B5A623A6830
:102BA000F968B86902F064F802463B6B1A60FB6A88
:102BB000002B02D0FB6A3A6B1A6000BF2037BD467B
:102BC00080BD000080B584B000AF786002F07CF971
:102BD000404B1B6801333F4A13603F4B1B68002B7F
:102BE00009D13D4A7B6813603A4B1B68012B10D119
:102BF00000F010FE0DE0394B1B68002B09D1364B5D
:102C00001B68DA6A7B68DB6A9A4202D8324A7B68C0
:102C10001360334B1B680133314A1360304B1A6821
:102C20007B681A647B68DB6A01229A402D4B1B6823
:102C300013432C4A13607B68DA6A2B4913469B00C6
:102C400013449B000B4404331B68FB607B68FA68E9
:102C50009A60FB689A687B68DA60FB689B687A68B0
:102C600004325A607B681A1DFB689A607B68DA6AD6
:102C700013469B0013449B001B4A1A447B685A610D
:102C80007B68DA6A184913469B0013449B000B4487
:102C90001B68591C144813469B0013449B000344B3
:102CA000196002F041F90D4B1B68002B0ED00A4B46
:102CB0001B68DA6A7B68DB6A9A4207D20B4B4FF0DB
:102CC00080521A60BFF34F8FBFF36F8F00BF103772
:102CD000BD4680BD50010020780000205C0100202E
:102CE0006C010020580100207C00002004ED00E071
:102CF00080B584B000AF786002F0E6F87B68002B06
:102D000002D13B4B1B6800E07B68FB60FB6804332F
:102D1000184601F057FC0346002B15D1FB68DA6A10
:102D2000344913469B0013449B000B441B68002B43
:102D30000AD1FB68DB6A012202FA03F3DA432E4B65
:102D40001B6813402C4A1360FB689B6A002B04D05D
:102D5000FB681833184601F035FC284B1B6801331B
:102D6000264A1360224B1B68FA689A420BD1FB6813
:102D700004331946224801F0C8FB224B1B6801337B
:102D8000204A136006E0204B1B68013B1E4A13607B
:102D900000F0BEFD02F0C8F8154B1B68FA689A42B5
:102DA00002D0F86800F0A4FD184B1B68002B1BD064
:102DB0000F4B1B68FA689A4216D1154B1B68002B03
:102DC0000AD04FF0500383F31188BFF36F8FBFF326
:102DD0004F8FBB6000BFFEE70E4B4FF080521A6072
:102DE000BFF34F8FBFF36F8F00BF1037BD4680BD5D
:102DF000780000207C000020580100206C01002099
:102E00002401002038010020500100205C01002036
:102E10007801002004ED00E080B584B000AF786058
:102E20000023FB607B68002B17D0134B1B68002B23
:102E30000AD04FF0500383F31188BFF36F8FBFF3B5
:102E40004F8FBB6000BFFEE700F06CF80021786890
:102E500000F098FD00F074F8F860FB68002B07D1D3
:102E6000064B4FF080521A60BFF34F8FBFF36F8F46
:102E700000BF1037BD4680BD7801002004ED00E0A2
:102E800080B586B002AF204B01930023009300234E
:102E900082221E491E48FFF7C3FDF860FB68012B24
:102EA00002D101F0B9FBF860FB68012B16D14FF09D
:102EB000500383F31188BFF36F8FBFF34F8FBB6055
:102EC00000BF144B4FF0FF321A60134B01221A60FF
:102ED000124B00221A6001F055FF0EE0FB68B3F1BF
:102EE000FF3F0AD14FF0500383F31188BFF36F8F78
:102EF000BFF34F8F7B6000BFFEE7094B1B6800BF2D
:102F00001037BD4680BD00BF740100208458000802
:102F1000E5370008700100205C010020540100200A
:102F20000C00002080B400AF044B1B680133034A3F
:102F3000136000BFBD465DF8047B70477801002038
:102F400080B588B000AF0023FB610023BB61714BEB
:102F50001B68002B0AD14FF0500383F31188BFF395
:102F60006F8FBFF34F8F7B6000BFFEE701F0ACFFB8
:102F7000684B1B68013B674A1360664B1B68002B5C
:102F800040F0C080644B1B68002B00F0BB808AE0DF
:102F9000624BDB68DB68FB61FB699B6A3B61FB6939
:102FA000DB69FA69126A9A60FB691B6AFA69D2697D
:102FB0005A603B695A68FB6918339A4203D1FB692E
:102FC0001A6A3B695A60FB6900229A623B691B6876
:102FD0005A1E3B691A60FB695B69FB60FB699B6871
:102FE000FA69D2689A60FB69DB68FA6992685A608C
:102FF000FB685A68FB6904339A4203D1FB69DA68BB
:10300000FB685A60FB6900225A61FB681B685A1E04
:10301000FB681A60FB69DB6A01229A40404B1B681F
:1030200013433F4A1360FB69DA6A3E4913469B002B
:1030300013449B000B4404331B68BB60FB69BA68F4
:103040009A60BB689A68FB69DA60BB689B68FA693A
:1030500004325A60FB691A1DBB689A60FB69DA6A20
:1030600013469B0013449B002E4A1A44FB695A6185
:10307000FB69DA6A2B4913469B0013449B000B44FF
:103080001B68591C274813469B0013449B000344AC
:103090001960FB69DA6A244B1B68DB6A9A4202D327
:1030A000224B01221A601D4B1B68002B7FF470AF6E
:1030B000FB69002B01D000F02BFC1D4B1B687B61D2
:1030C0007B69002B10D000F053F80346002B02D090
:1030D000164B01221A607B69013B7B617B69002BE7
:1030E000F1D1134B00221A60104B1B68002B09D042
:1030F0000123BB610F4B4FF080521A60BFF34F8F1B
:10310000BFF36F8F01F010FFBB6918462037BD4633
:1031100080BD00BF78010020500100201001002078
:10312000580100207C00002078000020640100206D
:103130006001002004ED00E080B483B000AF054BD7
:103140001B687B607B6818460C37BD465DF8047BC6
:10315000704700BF5401002080B400AF034B1B68D0
:103160001846BD465DF8047B704700BF5001002043
:1031700080B58AB000AF00237B627D4B1B68002BBB
:1031800040F0EC807B4B1B6801333B62794A3B6A21
:1031900013603B6A002B20D1774B1B681B68002B08
:1031A0000AD04FF0500383F31188BFF36F8FBFF342
:1031B0004F8F7B6000BFFEE76F4B1B68FB616F4B5F
:1031C0001B686D4A13606D4AFB6913606C4B1B688A
:1031D00001336B4A136000F09BFB6A4B1B683A6A31
:1031E0009A42C0F0A680644B1B681B68002B04D178
:1031F000644B4FF0FF321A609BE05F4B1B68DB684B
:10320000DB68BB61BB695B687B613A6A7B699A4238
:1032100003D25C4A7B6913608BE0BB695B693B61ED
:10322000BB699B68BA69D2689A60BB69DB68BA6996
:1032300092685A603B695A68BB6904339A4203D169
:10324000BB69DA683B695A60BB6900225A613B6915
:103250001B685A1E3B691A60BB699B6A002B1ED013
:10326000BB699B6AFB60BB69DB69BA69126A9A60D9
:10327000BB691B6ABA69D2695A60FB685A68BB6944
:1032800018339A4203D1BB691A6AFB685A60BB695A
:1032900000229A62FB681B685A1EFB681A60BB69B1
:1032A000DB6A01229A40384B1B681343364A13608D
:1032B000BB69DA6A354913469B0013449B000B44F3
:1032C00004331B68BB60BB69BA689A60BB689A68C4
:1032D000BB69DA60BB689B68BA6904325A60BB6933
:1032E0001A1DBB689A60BB69DA6A13469B001344D7
:1032F0009B00264A1A44BB695A61BB69DA6A2349B2
:1033000013469B0013449B000B441B68591C1F4829
:1033100013469B0013449B0003441960BB69DA6A9F
:103320001B4B1B68DB6A9A427FF65DAF01237B6211
:1033300059E7174B1B68DA6A144913469B0013447C
:103340009B000B441B68012B01D901237B62114BAD
:103350001B68002B07D001237B6204E00E4B1B6827
:1033600001330D4A13607B6A18462837BD4680BD7D
:103370007801002054010020080100200C010020E9
:103380006801002070010020580100207C0000200E
:1033900078000020640100206001002080B487B024
:1033A00000AF274B1B68002B03D0264B01221A606D
:1033B0003FE0244B00221A60234B1B68FB60FB6834
:1033C000B3FA83F3FB72FB7AC3F11F037B611F49DE
:1033D0007A6913469B0013449B000B441B68002B27
:1033E0000AD14FF0500383F31188BFF36F8FBFF3FF
:1033F0004F8F7B6000BFFEE77A6913469B00134442
:103400009B00124A13443B613B695B685A683B6905
:103410005A603B695A683B6908339A4204D13B6958
:103420005B685A683B695A603B695B68DB68084ABD
:10343000136000BF1C37BD465DF8047B704700BFBA
:103440007801002064010020580100207C00002049
:103450007800002080B584B000AF786039607B6868
:10346000002B0AD14FF0500383F31188BFF36F8F05
:10347000BFF34F8FFB6000BFFEE7074B1B6818339D
:103480001946786801F065F80121386800F07AFA89
:1034900000BF1037BD4680BD7800002080B586B0E3
:1034A00000AFF860B9607A60FB68002B0AD14FF07A
:1034B000500383F31188BFF36F8FBFF34F8F3B61CE
:1034C00000BFFEE7FB685B687B61164B1B687A698F
:1034D000DA61144B1B687A6992681A62114B1A6898
:1034E0007B699B6818325A600E4B1B6803F1180207
:1034F0007B699A600B4B1B68FA689A62FB681B68D1
:103500005A1CFB681A607B68002B02D04FF0FF3317
:10351000BB607968B86800F035FA00BF1837BD465F
:1035200080BD00BF7800002080B48BB000AF786011
:103530007B68DB68DB683B623B6A002B0AD14FF09B
:10354000500383F31188BFF36F8FBFF34F8FFB607E
:1035500000BFFEE73B6A9B6AFB613B6ADB693A6A34
:10356000126A9A603B6A1B6A3A6AD2695A60FB69BE
:103570005A683B6A18339A4203D13B6A1A6AFB695C
:103580005A603B6A00229A62FB691B685A1EFB69FB
:103590001A604A4B1B68002B5ED13B6A5B697B61FA
:1035A0003B6A9B683A6AD2689A603B6ADB683A6A0F
:1035B00092685A607B695A683B6A04339A4203D125
:1035C0003B6ADA687B695A603B6A00225A617B6910
:1035D0001B685A1E7B691A603B6ADB6A01229A40AB
:1035E000374B1B681343364A13603B6ADA6A354926
:1035F00013469B0013449B000B4404331B683B6140
:103600003B6A3A699A603B699A683B6ADA603B694F
:103610009B683A6A04325A603B6A1A1D3B699A6099
:103620003B6ADA6A13469B0013449B00254A1A44FE
:103630003B6A5A613B6ADA6A224913469B0013448B
:103640009B000B441B68591C1E4813469B001344E7
:103650009B00034419601BE01B4B5B68BB613B6A2A
:10366000BA69DA61BB699A683B6A1A62BB699B688E
:103670003A6A18325A603B6A03F11802BB699A60D1
:103680003B6A114A9A62104B1B6801330E4A136061
:103690003B6ADA6A0D4B1B68DB6A9A4205D9012343
:1036A0007B620B4B01221A6001E000237B627B6A84
:1036B00018462C37BD465DF8047B70477801002022
:1036C000580100207C00002010010020780000201C
:1036D0006401002080B483B000AF7860064B1A68A4
:1036E0007B681A60054B1A687B685A6000BF0C370C
:1036F000BD465DF8047B704768010020540100203E
:1037000080B588B000AF786039607B68002B0AD143
:103710004FF0500383F31188BFF36F8FBFF34F8FC8
:103720003B6100BFFEE73B68002B0AD14FF050031E
:1037300083F31188BFF36F8FBFF34F8FFB6000BF20
:10374000FEE701F0C1FB1F4B1B68BB617B685B6838
:10375000BA69D31A7B613B681B68B3F1FF3F02D1A2
:103760000023FB6126E07B681A68174B1B689A42AE
:103770000AD07B685B68BA699A4205D30123FB6172
:103780003B6800221A6015E03B681B687A699A4220
:103790000BD23B681A687B69D21A3B681A6078685A
:1037A000FFF798FF0023FB6104E03B6800221A60EA
:1037B0000123FB6101F0B8FBFB6918462037BD46C9
:1037C00080BD00BF540100206801002080B400AF1C
:1037D000034B01221A6000BFBD465DF8047B7047B1
:1037E0006401002080B582B000AF786000F052F82C
:1037F000064B1B68012BF9D9054B4FF080521A601C
:10380000BFF34F8FBFF36F8FF0E700BF7C00002046
:1038100004ED00E080B582B000AF00237B600CE0D7
:103820007A6813469B0013449B00124A13441846BF
:1038300000F03EFE7B6801337B607B68042BEFD990
:103840000D4800F035FE0D4800F032FE0C4800F047
:103850002FFE0C4800F02CFE0B4800F029FE0B4B0D
:10386000054A1A600A4B054A1A6000BF0837BD4670
:1038700080BD00BF7C000020E0000020F40000209C
:1038800010010020240100203C010020080100203C
:103890000C01002080B582B000AF19E001F014FBEC
:1038A000104BDB68DB687B607B680433184600F0F4
:1038B00089FE0D4B1B68013B0B4A13600B4B1B68C9
:1038C000013B0A4A136001F02FFB786800F010F802
:1038D000064B1B68002BE1D100BF00BF0837BD4677
:1038E00080BD00BF240100205001002038010020CD
:1038F00080B582B000AF78607B681B6B184601F022
:10390000BFFC786801F0BCFC00BF0837BD4680BD35
:1039100080B400AF0A4B1B681B68002B04D1094B15
:103920004FF0FF321A6005E0054B1B68DB681B682F
:10393000044A136000BFBD465DF8047B704700BFBA
:10394000080100207001002080B483B000AF0B4B51
:103950001B68002B02D101237B6008E0084B1B6829
:10396000002B02D102237B6001E000237B607B6897
:1039700018460C37BD465DF8047B70475C0100209B
:103980007801002080B586B000AF78603960364B92
:103990001B687B61354B1B680433184600F012FE30
:1039A0000346002B0BD1314B1B68DB6A012202FA64
:1039B00003F3DA432E4B1B6813402D4A13607B68D8
:1039C000B3F1FF3F24D13B68002B21D0294B5B682A
:1039D0003B61264B1B683A699A60244B1B683A6925
:1039E0009268DA60214B1A683B699B6804325A601E
:1039F0001E4B1B681A1D3B699A601C4B1B681D4AB5
:103A00005A611C4B1B6801331A4A136000BF26E041
:103A10007A697B681344FB60144B1B68FA685A6030
:103A2000FA687B699A4209D2134B1A680F4B1B68DC
:103A300004331946104600F08CFD10E00F4B1A6855
:103A40000A4B1B6804331946104600F082FD0C4BEC
:103A50001B68FA689A4202D2094AFB68136000BFE9
:103A60001837BD4680BD00BF5401002078000020FB
:103A7000580100203C0100200C010020080100201A
:103A80007001002080B586B000AF786039600123F6
:103A90007B617B683B613B69002B0AD14FF050038F
:103AA00083F31188BFF36F8FBFF34F8FFB6000BFAD
:103AB000FEE73B69002B5DD03B69DB6B002B59D0E7
:103AC0003B691A6C3B69DB6B0021A3FB0223002BD3
:103AD00000D001210B46002B4CD101F0F5F93B69D8
:103AE0001A683B69DB6B3969096C01FB03F31A4403
:103AF0003B699A603B6900229A633B691A683B699B
:103B00005A603B691A683B69DB6B013B3969096C98
:103B100001FB03F31A443B69DA603B69FF2283F837
:103B200044203B69FF2283F845203B68002B14D1D9
:103B30003B691B69002B1AD03B6910331846FFF70D
:103B4000F3FC0346002B12D0154B4FF080521A6045
:103B5000BFF34F8FBFF36F8F09E03B6910331846F7
:103B600000F0A6FC3B692433184600F0A1FC01F0EC
:103B7000DBF901E000237B617B69002B0AD14FF068
:103B8000500383F31188BFF36F8FBFF34F8FBB6078
:103B900000BFFEE77B6918461837BD4680BD00BFF1
:103BA00004ED00E080B58AB002AFF860B96013465A
:103BB000FB710023FB61FB68002B2ED00021BA684B
:103BC000FB68A3FB0223002B00D001210B46002B36
:103BD00023D1FB68BA6802FB03F313F1510F1CD821
:103BE000FB68BA6802FB03F3BB61BB69503318463C
:103BF00001F08CFAF861FB69002B1CD0FB697B613A
:103C00007B6950337B61FA79FB69009313467A69CB
:103C1000B968F86800F014F80DE0FB69002B0AD1D0
:103C20004FF0500383F31188BFF36F8FBFF34F8FB3
:103C30003B6100BFFEE7FB6918462037BD4680BDEB
:103C400080B584B000AFF860B9607A60FB70BB6883
:103C5000002B03D1BB69BA691A6002E0BB697A68BC
:103C60001A60BB69FA68DA63BB69BA681A64012131
:103C7000B869FFF707FFBB69FA7883F84C2000BFEB
:103C80001037BD4680BD000080B58EB000AFF86033
:103C9000B9607A603B6000237B63FB683B633B6BEE
:103CA000002B0AD14FF0500383F31188BFF36F8FBD
:103CB000BFF34F8FBB6200BFFEE7BB68002B03D191
:103CC0003B6B1B6C002B01D1012300E00023002B78
:103CD0000AD14FF0500383F31188BFF36F8FBFF306
:103CE0004F8F7B6200BFFEE73B68022B03D13B6B2B
:103CF000DB6B012B01D1012300E00023002B0AD153
:103D00004FF0500383F31188BFF36F8FBFF34F8FD2
:103D10003B6200BFFEE7FFF717FE0346002B02D110
:103D20007B68002B01D1012300E00023002B0AD186
:103D30004FF0500383F31188BFF36F8FBFF34F8FA2
:103D4000FB6100BFFEE701F0BFF83B6B9A6B3B6B7A
:103D5000DB6B9A4202D33B68022B29D13A68B968DF
:103D6000386B00F021FAF8623B6B5B6A002B10D0D5
:103D70003B6B24331846FFF7D7FB0346002B13D0C9
:103D80003F4B4FF080521A60BFF34F8FBFF36F8FDE
:103D90000AE0FB6A002B07D0394B4FF080521A60C3
:103DA000BFF34F8FBFF36F8F01F0BEF8012363E0C5
:103DB0007B68002B03D101F0B7F800235CE07B6B3C
:103DC000002B06D107F114031846FFF783FC0123EB
:103DD0007B6301F0A9F8FFF7A5F801F075F83B6BDC
:103DE00093F844305BB2B3F1FF3F03D13B6B002249
:103DF00083F844203B6B93F845305BB2B3F1FF3F4F
:103E000003D13B6B002283F8452001F08DF83A1D69
:103E100007F1140311461846FFF772FC0346002B06
:103E200024D1386B00F0AAFA0346002B18D03B6B64
:103E300010337A6811461846FFF70CFB386B00F018
:103E400035FAFFF77DF80346002B7FF47CAF0C4B6F
:103E50004FF080521A60BFF34F8FBFF36F8F72E73E
:103E6000386B00F023FAFFF76BF86CE7386B00F063
:103E70001DFAFFF765F8002318463837BD4680BDA8
:103E800004ED00E080B592B000AFF860B9607A60F0
:103E90003B60FB683B643B6C002B0AD14FF0500346
:103EA00083F31188BFF36F8FBFF34F8FFB6200BFA7
:103EB000FEE7BB68002B03D13B6C1B6C002B01D1D0
:103EC000012300E00023002B0AD14FF0500383F3BD
:103ED0001188BFF36F8FBFF34F8FBB6200BFFEE748
:103EE0003B68022B03D13B6CDB6B012B01D101231F
:103EF00000E00023002B0AD14FF0500383F3118818
:103F0000BFF36F8FBFF34F8F7B6200BFFEE701F0FF
:103F1000BDF8EFF311824FF0500383F31188BFF324
:103F20006F8FBFF34F8F3A62FB613B6AFB633B6C61
:103F30009A6B3B6CDB6B9A4202D33B68022B46D1F7
:103F40003B6C93F8453087F83B303B6C9B6B7B6355
:103F50003A68B968386C00F027F997F93B30B3F14B
:103F6000FF3F12D13B6C5B6A002B2DD03B6C24339E
:103F70001846FFF7D9FA0346002B25D07B68002BA3
:103F800022D07B6801221A601EE0FFF7E5F8386353
:103F900097F93B303A6B9A4216D997F93B307F2B11
:103FA0000AD14FF0500383F31188BFF36F8FBFF333
:103FB0004F8FBB6100BFFEE797F83B300133DBB2A8
:103FC0005AB23B6C83F8452001237B6401E0002357
:103FD0007B64FB6B7B617B6983F3118800BF7B6C27
:103FE00018464837BD4680BD80B58CB000AFF8603C
:103FF000B9607A600023FB62FB68BB62BB6A002B7E
:104000000AD14FF0500383F31188BFF36F8FBFF3D2
:104010004F8F3B6200BFFEE7BB68002B03D1BB6A3A
:104020001B6C002B01D1012300E00023002B0AD1DF
:104030004FF0500383F31188BFF36F8FBFF34F8F9F
:10404000FB6100BFFEE7FFF77FFC0346002B02D1B8
:104050007B68002B01D1012300E00023002B0AD153
:104060004FF0500383F31188BFF36F8FBFF34F8F6F
:10407000BB6100BFFEE700F027FFBB6A9B6B7B6262
:104080007B6A002B1FD0B968B86A00F0E9F87B6A38
:104090005A1EBB6A9A63BB6A1B69002B0FD0BB6AAE
:1040A00010331846FFF740FA0346002B07D03D4B6C
:1040B0004FF080521A60BFF34F8FBFF36F8F00F045
:1040C00033FF012369E07B68002B03D100F02CFF54
:1040D000002362E0FB6A002B06D107F110031846AB
:1040E000FFF7F8FA0123FB6200F01EFFFEF71AFF4C
:1040F00000F0EAFEBB6A93F844305BB2B3F1FF3FD5
:1041000003D1BB6A002283F84420BB6A93F8453090
:104110005BB2B3F1FF3F03D1BB6A002283F84520B5
:1041200000F002FF3A1D07F1100311461846FFF791
:10413000E7FA0346002B23D1B86A00F009F90346D9
:10414000002B17D0BB6A24337A6811461846FFF754
:1041500081F9B86A00F0AAF8FEF7F2FE0346002BD8
:1041600089D1104B4FF080521A60BFF34F8FBFF3CD
:104170006F8F80E7B86A00F099F8FEF7E1FE7AE702
:10418000B86A00F093F8FEF7DBFEB86A00F0E0F8DA
:104190000346002B3FF46FAF002318463037BD466F
:1041A00080BD00BF04ED00E080B586B000AFF860D0
:1041B000B9607A6000233B61FB689B6B7B61FB68A5
:1041C0001B6C002B43D07B68002B19D1FB6858680F
:1041D000FB681B6C1A46B96801F032FBFB685A6831
:1041E000FB681B6C1A44FB685A60FB685A68FB68E2
:1041F0009B689A422BD3FB681A68FB685A6026E0DA
:10420000FB68D868FB681B6C1A46B96801F018FB9C
:10421000FB68DA68FB681B6C5B421A44FB68DA6077
:10422000FB68DA68FB681B689A4207D2FB689A68E9
:10423000FB681B6C5B421A44FB68DA607B68022BEC
:1042400005D17B69002B02D07B69013B7B617B69D7
:104250005A1CFB689A633B6918461837BD4680BDF7
:1042600080B582B000AF786039607B681B6C002B32
:1042700018D07B68DA687B681B6C1A447B68DA604C
:104280007B68DA687B689B689A4203D37B681A680C
:104290007B68DA607B68D9687B681B6C1A46386873
:1042A00001F0CEFA00BF0837BD4680BD80B584B0AE
:1042B00000AF786000F008FE7B6893F84530FB7330
:1042C00011E07B685B6A002B12D07B6824331846B0
:1042D000FFF72AF90346002B01D0FFF777FAFB7BA3
:1042E000013BDBB2FB7397F90F30002BE9DC00E0F8
:1042F00000BF7B68FF2283F8452000F015FE00F028
:10430000E3FD7B6893F84430BB7311E07B681B6965
:10431000002B12D07B6810331846FFF705F90346CF
:10432000002B01D0FFF752FABB7B013BDBB2BB7322
:1043300097F90E30002BE9DC00E000BF7B68FF221C
:1043400083F8442000F0F0FD00BF1037BD4680BD6B
:1043500080B584B000AF786000F0B6FD7B689B6BE1
:10436000002B02D10123FB6001E00023FB6000F081
:10437000DBFDFB6818461037BD4680BD80B584B0B4
:1043800000AF786000F0A0FD7B689A6B7B68DB6B08
:104390009A4202D10123FB6001E00023FB6000F0A0
:1043A000C3FDFB6818461037BD4680BD80B487B09A
:1043B00000AF7860396000233B617B68002B0AD135
:1043C0004FF0500383F31188BFF36F8FBFF34F8F0C
:1043D000FB6000BFFEE73B68002B24D000237B611D
:1043E0001EE0184A7B69DB0013445B687A689A42D6
:1043F00005D17B69DB00134A13443B6113E03B6941
:10440000002B0AD10F4A7B6952F83330002B04D1BC
:104410007B69DB000B4A13443B617B6901337B61A1
:104420007B69072BDDD93B69002B05D03B693A68D6
:104430001A603B697A685A6000BF1C37BD465DF858
:10444000047B70477C01002080B586B000AFF86027
:10445000B9607A60FB687B6100F036FD7B6993F898
:1044600044305BB2B3F1FF3F03D17B69002283F894
:1044700044207B6993F845305BB2B3F1FF3F03D131
:104480007B69002283F8452000F04EFD7B699B6B21
:10449000002B06D17B6924337A68B9681846FEF789
:1044A000FDFF7869FFF702FF00BF1837BD4680BDEA
:1044B00080B483B000AF78607B6803F108027B684A
:1044C0005A607B684FF0FF329A607B6803F1080204
:1044D0007B68DA607B6803F108027B681A617B689D
:1044E00000221A6000BF0C37BD465DF8047B7047A0
:1044F00080B483B000AF78607B6800221A6100BF8F
:104500000C37BD465DF8047B704780B485B000AFC2
:10451000786039607B685B68FB603B68FA685A606A
:10452000FB689A683B689A60FB689B683A685A60C7
:10453000FB683A689A603B687A681A617B681B6816
:104540005A1C7B681A6000BF1437BD465DF8047BB7
:10455000704780B485B000AF786039603B681B68F5
:10456000BB60BB68B3F1FF3F03D17B681B69FB6095
:104570000CE07B680833FB6002E0FB685B68FB6073
:10458000FB685B681B68BA689A42F6D2FB685A6897
:104590003B685A603B685B683A689A603B68FA68B7
:1045A0009A60FB683A685A603B687A681A617B686F
:1045B0001B685A1C7B681A6000BF1437BD465DF843
:1045C000047B704780B485B000AF78607B681B695E
:1045D000FB607B685B687A6892689A607B689B681E
:1045E0007A6852685A60FB685B687A689A4203D1BD
:1045F0007B689A68FB685A607B6800221A61FB68D6
:104600001B685A1EFB681A60FB681B681846143743
:10461000BD465DF8047B704780B584B002AF0023CF
:104620007B6000F0EFFA114B1B68002B0BD0104B96
:1046300001930223009300234FF482720D490E4828
:10464000FEF7EEF978607B68002B0AD14FF050033B
:1046500083F31188BFF36F8FBFF34F8F3B6000BFB1
:10466000FEE77B6818460837BD4680BDEC01002098
:10467000F00100208C5800087148000880B588B00F
:1046800002AFF860B9607A603B602C2000F03EFD1C
:1046900078617B69002B0DD07B69002283F828208C
:1046A0007B6901933B6A00933B687A68B968F86854
:1046B00000F005F87B6918461837BD4680BD80B507
:1046C00086B000AFF860B9607A603B60BB68002BD1
:1046D0000AD14FF0500383F31188BFF36F8FBFF3FC
:1046E0004F8F7B6100BFFEE700F08CFA7B6AFA68AF
:1046F0001A607B6ABA689A617B6A3A68DA617B6A97
:104700003A6A1A627B6A04331846FFF7F1FE7B6847
:10471000002B08D07B6A93F8283043F00403DAB208
:104720007B6A83F8282000BF1837BD4680BD000093
:1047300080B58AB000AFF860B9607A603B60002352
:104740007B62FB68002B0AD14FF0500383F3118882
:10475000BFF36F8FBFF34F8F3B6200BFFEE71A4B73
:104760001B68002B2AD0BB687B617B68BB61FB6840
:10477000FB61BB68052B18DCFFF7E6F80346022B4C
:1047800009D1114B186807F1140100233A6BFFF7A8
:104790007BFA786212E00C4B186807F114010023D1
:1047A0000022FFF771FA786208E0074B186807F1FA
:1047B000140100233A68FFF765FB78627B6A1846AC
:1047C0002837BD4680BD00BFEC01002080B584B015
:1047D00000AFF860B9607A6008E0FB689B69BA686E
:1047E0001344BB60FB681B6AF8689847FB689A69CA
:1047F000BB68D118BB687A68F86800F0DDF803463A
:10480000002BEAD100BF00BF1037BD4680BD0000BD
:1048100080B584B000AF78603960144B1B68DB68EA
:10482000DB68FB60FB6804331846FFF7CBFEFB68D0
:1048300093F8283003F00403002B05D03A68796818
:10484000F868FFF7C3FF08E0FB6893F8283023F00F
:104850000103DAB2FB6883F82820FB681B6AF8685A
:10486000984700BF1037BD4680BD00BFE40100205F
:1048700080B584B000AF786007F10803184600F0F7
:1048800057F8F860BB681946F86800F003F800F0C4
:10489000D5F8F1E780B584B000AF78603960FEF7F5
:1048A00041FB07F10803184600F066F8F860BB68A2
:1048B000002B30D13B68002B0AD17A68FB689A4202
:1048C00006D8FEF73DFBF9687868FFF7A1FF24E002
:1048D0003B68002B08D0134B1B681B68002B01D1D1
:1048E000012300E000233B600F4B18687A68FB68E7
:1048F000D31A3A681946FFF7A7FDFEF721FB0346D6
:10490000002B0AD1094B4FF080521A60BFF34F8F32
:10491000BFF36F8F01E0FEF713FB00BF1037BD46FA
:1049200080BD00BFE8010020EC01002004ED00E0A4
:1049300080B485B000AF78600E4B1B681B68002BFD
:1049400001D1012200E000227B681A607B681B68AD
:10495000002B05D1074B1B68DB681B68FB6001E07F
:104960000023FB60FB6818461437BD465DF8047BE6
:10497000704700BFE401002080B584B000AF7860CC
:10498000FEF7DAFBF8600B4B1B68FA689A4205D217
:1049900000F012F97B6801221A6002E07B680022B5
:1049A0001A60044AFB681360FB6818461037BD465E
:1049B00080BD00BFF401002080B586B000AFF86074
:1049C000B9607A603B6000237B61FB68BA685A601B
:1049D000FB68FA681A61BA687B689A4212D87A68EA
:1049E0003B68D21AFB689B699A4202D301237B6120
:1049F0001BE0104B1A68FB68043319461046FFF79A
:104A0000A8FD12E07A683B689A4206D2BA683B6811
:104A10009A4202D301237B6107E0074B1A68FB68C7
:104A2000043319461046FFF794FD7B691846183782
:104A3000BD4680BDE8010020E401002080B588B0BB
:104A400000AFA6E0BB68002BC0F2A2803B69FB610F
:104A5000FB695B69002B04D0FB6904331846FFF740
:104A6000B1FD3B1D1846FFF787FFB861BB68013BEE
:104A7000082B00F28E8001A252F823F0A14A000810
:104A8000A14A0008094B00081D4B0008674B0008AD
:104A9000A14A0008A14A0008094B00081D4B000864
:104AA000FB6993F8283043F00103DAB2FB6983F81D
:104AB0002820FA68FB699B69D118FB68BA69F86914
:104AC000FFF77AFF0346002B63D0FB6993F8283089
:104AD00003F00403002B09D0FA68FB699B691344B7
:104AE000BA691946F869FFF771FE08E0FB6993F8A7
:104AF000283023F00103DAB2FB6983F82820FB6930
:104B00001B6AF869984744E0FB6993F8283023F062
:104B10000103DAB2FB6983F828203AE0FB6993F8D5
:104B2000283043F00103DAB2FB6983F82820FA68E1
:104B3000FB699A61FB699B69002B0AD14FF0500316
:104B400083F31188BFF36F8FBFF34F8F7B6100BF7B
:104B5000FEE7FB699A69BB69D118BB69BA69F86954
:104B6000FFF72AFF15E0FB6993F8283003F00203F2
:104B7000002B03D1F86900F083FB0AE0FB6993F88E
:104B8000283023F00103DAB2FB6983F8282000E023
:104B900000BF084B1B6807F1080100221846FFF709
:104BA00023FA0346002B7FF44DAF00BF00BF203730
:104BB000BD4680BDEC01002080B582B000AF09E0A9
:104BC0000E4B1B68DB681B683B604FF0FF31386899
:104BD000FFF71EFE094B1B681B68002BF0D1074B2B
:104BE0001B687B60064B1B68044A1360044A7B68A1
:104BF000136000BF0837BD4680BD00BFE401002040
:104C0000E801002080B500AF00F05EF9124B1B6890
:104C1000002B1DD11148FFF74BFC1148FFF748FC52
:104C2000104B0E4A1A60104B0D4A1A6000220C21DC
:104C30000A20FEF7B7FF0346074A1360064B1B68BE
:104C4000002B05D0044B1B6808491846FFF7AEFB44
:104C500000F06AF900BF80BDEC010020BC0100201B
:104C6000D0010020E4010020E80100209458000851
:104C700080B485B000AFF860B9607A60FB68043B2F
:104C8000FB60FB684FF080721A60FB68043BFB60BE
:104C9000BB6823F00102FB681A60FB68043BFB6001
:104CA0000C4AFB681A60FB68143BFB607A68FB687F
:104CB0001A60FB68043BFB60FB686FF002021A603D
:104CC000FB68203BFB60FB6818461437BD465DF867
:104CD000047B7047D94C000880B485B000AF002336
:104CE0007B60124B1B68B3F1FF3F0AD04FF05003BB
:104CF00083F31188BFF36F8FBFF34F8FFB6000BF4B
:104D0000FEE74FF0500383F31188BFF36F8FBFF3BB
:104D10004F8FBB6000BF00BF7B68002BFCD000BF83
:104D200000BF1437BD465DF8047B704710000020BB
:104D3000074B19680868B0E8F04F80F30988BFF3A3
:104D40006F8F4FF0000080F311887047AFF3008041
:104D50007800002000BF00BF08480068006880F3AA
:104D600008884FF0000080F3148862B661B6BFF384
:104D70004F8FBFF36F8F00DF00BF000008ED00E032
:104D800000BF00BF80B586B000AF464B1B68464AE7
:104D900093420AD14FF0500383F31188BFF36F8F12
:104DA000BFF34F8F3B6100BFFEE73E4B1B683F4A9E
:104DB00093420AD14FF0500383F31188BFF36F8FF2
:104DC000BFF34F8FFB6000BFFEE7394B7B617B6910
:104DD0001B78DBB27B607B69FF221A707B691B78D2
:104DE000DBB2FB70FB78DBB203F05003DAB2314B7D
:104DF0001A70314B07221A6009E02F4B1B68013BE8
:104E00002D4A1360FB78DBB25B00DBB2FB70FB78F2
:104E1000DBB203F08003802BEFD0274B1B68C3F17C
:104E20000703042B0AD04FF0500383F31188BFF31C
:104E30006F8FBFF34F8FBB6000BFFEE71E4B1B6839
:104E40001B021D4A13601C4B1B6803F4E0631A4AE3
:104E500013607B68DAB27B691A70184B1B68174ABB
:104E600043F470031360154B1B68144A43F07043FE
:104E7000136000F0DBF8124B00221A6000F0FAF821
:104E8000104B1B680F4A43F040431360FFF764FF69
:104E9000FEF784FAFFF720FF002318461837BD46B7
:104EA00080BD00BF00ED00E071C20F4170C20F4134
:104EB00000E400E0F8010020FC01002020ED00E00B
:104EC0001000002034EF00E080B483B000AF4FF05A
:104ED000500383F31188BFF36F8FBFF34F8F7B6055
:104EE00000BF0F4B1B6801330D4A13600C4B1B684E
:104EF000012B0FD10B4B1B68DBB2002B0AD04FF0FC
:104F0000500383F31188BFF36F8FBFF34F8F3B6064
:104F100000BFFEE700BF0C37BD465DF8047B70475D
:104F20001000002004ED00E080B483B000AF124B0D
:104F30001B68002B0AD14FF0500383F31188BFF395
:104F40006F8FBFF34F8F7B6000BFFEE70A4B1B687C
:104F5000013B094A1360084B1B68002B05D1002355
:104F60003B603B6883F3118800BF00BF0C37BD4630
:104F70005DF8047B704700BF1000002000000000B7
:104F8000EFF30980BFF36F8F154B1A681EF0100FF7
:104F900008BF20ED108A20E9F04F10602DE90900CC
:104FA0004FF0500080F31188BFF34F8FBFF36F8F26
:104FB000FEF7F4F94FF0000080F3118809BC19687E
:104FC0000868B0E8F04F1EF0100F08BFB0EC108A70
:104FD00080F30988BFF36F8F704700BFAFF3008085
:104FE0007800002000BF00BF80B582B000AF4FF056
:104FF000500383F31188BFF36F8FBFF34F8F7B6034
:1050000000BFFEF7B5F80346002B03D0064B4FF068
:1050100080521A6000233B603B6883F3118800BF15
:1050200000BF0837BD4680BD04ED00E080B400AF8E
:105030000B4B00221A600B4B00221A600A4B1B68B4
:105040000A4AA2FB03239B09094A013B1360044B54
:1050500007221A6000BFBD465DF8047B704700BFA1
:1050600010E000E018E000E008000020D34D6210DE
:1050700014E000E0DFF80C00016841F47001016009
:105080007047000088ED00E000BF00BF80B485B02D
:1050900000AFEFF30583FB60FB680F2B14D9174AB1
:1050A000FB6813441B78FB72154B1B78FA7A9A4203
:1050B0000AD24FF0500383F31188BFF36F8FBFF311
:1050C0004F8F7B6000BFFEE70E4B1B6803F4E0626E
:1050D0000D4B1B689A420AD94FF0500383F3118895
:1050E000BFF36F8FBFF34F8F3B6000BFFEE700BF82
:1050F0001437BD465DF8047B704700BFF0E300E065
:10510000F80100200CED00E0FC01002080B58AB021
:1051100000AF78600023FB61FDF704FF534B1B6871
:10512000002B01D100F008F97B68002B12D0082277
:105130007B6803F00703D31A0833BB61BB69DB4309
:105140007A689A4204D87A68BB6913447B6001E0AC
:1051500000237B607B68002B70DB7B68002B6DD0AD
:10516000434B1B687A689A4268D8424B3B62414B7A
:105170001B687B6204E07B6A3B627B6A1B687B6224
:105180007B6A5B687A689A4203D97B6A1B68002B4A
:10519000F1D1364B1B687A6A9A424FD03B6A1B6842
:1051A00008221344FB617B6A1A683B6A1A607B6AB7
:1051B0005A687B68D21A08235B009A421FD97A6A20
:1051C0007B6813447B617B6903F00703002B0AD0E3
:1051D0004FF0500383F31188BFF36F8FBFF34F8FEE
:1051E0003B6100BFFEE77B6A5A687B68D21A7B6925
:1051F0005A607B6A7A685A60786900F0F9F81C4B4B
:105200001A687B6A5B68D31A194A1360184B1A68CC
:10521000194B1B689A4203D2154B1B68164A136040
:105220007B6A5B6843F000427B6A5A607B6A0022BB
:105230001A60124B1B680133104A1360FDF780FEA1
:10524000FB6903F00703002B0AD04FF0500383F3F0
:105250001188BFF36F8FBFF34F8FFB6000BFFEE776
:10526000FB6918462837BD4680BD00BF082E0120C7
:105270000C2E0120002E0120102E0120142E0120C2
:1052800080B586B000AF78607B687B617B68002B5F
:1052900049D008235B427A6913447B617B693B6197
:1052A0003B695B68002B0ADB4FF0500383F31188E6
:1052B000BFF36F8FBFF34F8FFB6000BFFEE73B690B
:1052C0001B68002B0AD04FF0500383F31188BFF303
:1052D0006F8FBFF34F8FBB6000BFFEE73B695B681A
:1052E000DB0F03F00103DBB2002B1CD03B691B6812
:1052F000002B18D13B695B6823F000423B695A6080
:10530000FDF710FE3B695A68094B1B681344084AB5
:105310001360386900F06CF8064B1B680133054ACE
:105320001360FDF70DFE00BF1837BD4680BD00BFFE
:105330000C2E0120182E012080B485B000AF4FF450
:105340009633BB60254BFB60FB6803F00703002B23
:105350000CD0FB680733FB60FB6823F00703FB609E
:10536000BA68FB68D31A1D4A1344BB60FB687B60B4
:105370001B4A7B6813601A4B00225A607B68BA682C
:105380001344FB600822FB689B1AFB60FB6823F058
:105390000703FB60FB68134A1360124B1B68002273
:1053A0005A60104B1B6800221A607B683B603B68A8
:1053B000FA68D21A3B685A600A4B1A683B681A604E
:1053C0003B685B68084A13603B685B68074A136088
:1053D00000BF1437BD465DF8047B70470002002013
:1053E000002E0120082E0120102E01200C2E01205D
:1053F00080B485B000AF7860284BFB6002E0FB68AA
:105400001B68FB60FB681B687A689A42F7D8FB68E8
:10541000BB60FB685B68BA6813447A689A4208D13B
:10542000FB685A687B685B681A44FB685A60FB68D3
:105430007B607B68BB607B685B68BA681A44FB680A
:105440001B689A4218D1FB681A68154B1B689A4270
:105450000DD07B685A68FB681B685B681A447B68E0
:105460005A60FB681B681A687B681A6008E00C4B7E
:105470001A687B681A6003E0FB681A687B681A6028
:10548000FA687B689A4202D0FB687A681A6000BFAB
:105490001437BD465DF8047B704700BF002E012025
:1054A000082E012080B582B000AF78600A4B1B68DF
:1054B0001846FDF71DFC002220210848FDF782F860
:1054C0004FF0FF33012206490648FBF71CFA00BFE4
:1054D0000837BD4680BD00BF282E012000000240D5
:1054E000FB5800083000002080B582B000AF786023
:1054F000074B1B681846FDF7FBFB4FF0FF330122FB
:1055000004490548FBF7FFF900BF0837BD4680BDD9
:105510002C2E0120312E01203000002090B585B0C6
:1055200002AF78600E4B1C68FDF706FE02460023B2
:105530000093002302212046FFF7FAF801222021E0
:105540000848FDF73FF8FA20FDF766FC002220210D
:105550000448FDF737F8FA20FDF75EFCEEE700BFE0
:10556000202E01200000024090B585B002AF786087
:10557000164B00221A70164B1C68FDF7DDFD024623
:1055800000230093002302212046FFF7D1F84FF4B7
:1055900000511048FCF7FEFF0346002BF7D1142002
:1055A000FDF73AFC00BF4FF400510A48FCF7F2FF48
:1055B0000346002BF7D01420FDF72EFC034B1B787D
:1055C0000133DAB2014B1A70E1E700BF312E01203E
:1055D000242E01200008024080B586B002AF78601A
:1055E000234B1B6807F10F014FF0FF321846FEF7FF
:1055F000FBFC0346012B37D1FB7B022B29D0022B6E
:1056000034DC002B02D0012B08D02FE04FF0FF3309
:105610000B2218491848FBF776F928E04FF400717F
:105620001648FCF7B7FF0346012B0AD1144B019330
:10563000012300930023822212491348FDF7F0F959
:1056400015E04FF0FF33012210490B48FBF75BF9DF
:105650000DE00F4B019301230093002382220D499B
:105660000D48FDF7DDF902E000BFB9E700BFB7E77D
:105670001C2E0120F05800083000002000080240D5
:10568000282E01209C5800081D550008FC580008D1
:105690002C2E0120A45800086955000880B582B05E
:1056A00002AF0A23002201211846FEF77BFA0346C7
:1056B000164A136041F28831154B009300230022F3
:1056C0001448FEF7DBFF0346134A136042F21071E1
:1056D000124B0093002300221148FEF7CFFF034630
:1056E000104A1360002301930123009300238222B8
:1056F0000D490E48FDF794F901220D490D48FBF7BD
:1057000094F9FDF7BDFB00BFBD4680BD1C2E0120F6
:10571000A5540008AC580008202E0120E9540008C8
:10572000BC580008242E0120C8580008D95500088C
:10573000302E01203000002080B584B000AF7860AA
:105740007B681B68124A934212D1124B1B78303B84
:10575000DBB2FB72104B186807F10C0207F10B016A
:105760000023FEF78FFB01220A490C48FBF75DF985
:10577000FB68002B07D00A4B4FF080521A60BFF332
:105780004F8FBFF36F8F00BF1037BD4680BD00BF86
:1057900000440040302E01201C2E0120300000204B
:1057A00004ED00E0DFF834D00D480E490E4A002326
:1057B00002E0D458C4500433C4188C42F9D30B4AC5
:1057C0000B4C002301E013600432A242FBD3FDF72F
:1057D00015F900F011F8FAF785FE704700800120F6
:1057E00000000020140000201059000814000020C0
:1057F000342E0120FEE7000070B50D4D0D4C641BEA
:10580000A4100026A64209D10B4D0C4C00F02EF836
:10581000641BA4100026A64205D170BD55F8043BB8
:1058200098470136EEE755F8043B98470136F2E712
:105830000859000808590008085900080C590008C0
:105840000A44914200F1FF3300D1704710B511F8BE
:10585000014B03F8014F9142F9D110BD02440346B8
:10586000934200D1704703F8011BF9E7F8B500BF78
:10587000F8BC08BC9E467047F8B500BFF8BC08BC31
:045880009E46704789
:1058840049444C4500000000546D72205376630077
:10589400546D7251000000004C65645461736B00D8
:1058A4004B625461736B000054696D4C6564314202
:1058B4006C696E6B0000000054696D4B6252656147
:1058C400640000005465726D696E616C5461736BA1
:1058D40000000000000000000000000001020304BA
:1058E40006070809000000000102030474657374CC
:0C58F4005F6475745F310000010000006B
:0859000010A9FF7F0100000067
:04590800C5010008CD
:04590C00A1010008ED
:1059100010000000010000000024F400040000005A
:04592000AAAAAAAADB
:04000005080057A5F3
:00000001FF
